:1000000002000375814C12012EE582600302006F2D
:10001000780079007A007B007C007D00EC4D601C4C
:1000200088828983E493A3A882A9838A828B83F040
:10003000A3AA82AB831CBCFFE31D80E07582007520
:1000400083007C007D00EC4D600AE4F0A31CBCFF43
:10005000F51D80F27582007583007C007D00EC4DFB
:10006000600AE4F0A31CBCFFF51D80F212012D1202
:1000700002C480FE1B5B324A004144432074657316
:10008000742070726F6772616D0A46696C653A2000
:1000900025730A436F6D70696C65643A2025732C73
:1000A0002025730A0A00433A5C55736572735C6AD3
:1000B000657272795C4F6E6544726976655C446FF7
:1000C00063756D656E74735C454C45432032393100
:1000D000204C6162735C4C616220355C45464D3852
:1000E0005F4144432E63004D61722020382032303E
:1000F00032330031353A30393A3532006672657143
:10010000203D2025662C2076726D7331203D202500
:10011000662C76726D7332203D2025662C706861E6
:10012000736564696666203D2025660D002275A70B
:10013000007597DE7597AD75FF8075EF0675A71092
:1001400075C12075A70075A90075A900E5A930E75C
:10015000FB75A90375A903E5A930E7FB43A4107556
:10016000E10175E20075E340759810758DE6858DA7
:100170008B53890F438920D28ED2997582002275C4
:10018000A700C2EF75B28075BC2075B91E75E80076
:1001900075DF3F75B300D2EF22AA82438E4075927D
:1001A000B87593FF8592948593957591047B00C3F0
:1001B000EB9A500BE59130E7FB53917F0B80F07584
:1001C000910022AA82AB837C007D00C3EC9AED9B58
:1001D000502B7E00BE0400501D7582FAC002C00381
:1001E000C004C005C006120199D006D005D004D0C5
:1001F00003D0020E80DE0CBC00D10D80CE22AA827C
:10020000851CF005F07401800225E0D5F0FBFB753C
:10021000A720BA0002800ABA0102800FBA021E802B
:1002200014EBF4FA52F1EB42D48012EBF4FA52F2EE
:10023000EB42D58008EBF4FA52F3EB42CC75A70001
:10024000228582BBC2EDD2EC30EDFD85BD8285BE3C
:100250008322120241120816AA82AB83ACF0FDC0C1
:1002600002C003C004C005906C8B75F0537440123B
:100270000822AA82AB83ACF0FDE58124FCF581E481
:10028000C0E074FCC0E0747FC0E07446C0E08A82C5
:100290008B838CF0ED120977AA82AB83ACF0FDE57D
:1002A0008124FCF5818A828B838CF0ED22C2EDD211
:1002B000EC30EDFD85BD8285BE83225389F04389F4
:1002C00001C28C22E4F533F5341202BB9001F41222
:1002D00001C37474C0E07400C0E07480C0E012090F
:1002E0003E15811581158174F3C0E07400C0E0747F
:1002F00080C0E074E7C0E07400C0E07480C0E074C7
:10030000A6C0E07400C0E07480C0E07479C0E074FE
:1003100000C0E07480C0E012093EE58124F4F5815C
:10032000751C027582021201FE751C037582021291
:1003300001FE751C047582021201FE751C05758292
:10034000021201FE12017FC28D75220075BB12C21E
:10035000EDD2EC30EDFD758A00758C001202ADAC6B
:1003600082AD83C374FA9CE49D40F11202ADAC826D
:10037000AD83C3EC94FAED940040F0D28C1202AD40
:10038000AC82AD83C374FA9CE49D5009108D028049
:10039000EC052280E8C28C8522821208C5AC82ADB1
:1003A00083AEF0FFC004C005C006C0079000007512
:1003B000F0807447120822AC82AD83AEF0FFE58175
:1003C00024FCF581858C82C004C005C006C00712DC
:1003D00008C5A882A983AAF0FBC000C001C002C062
:1003E0000390000075F0807443120822AA82AB8348
:1003F000A8F0F9E58124FCF581D007D006D005D01E
:1004000004C002C003C000C0018C828D838EF0EF57
:100410001208D0AA82AB83ACF0FDE58124FCF58103
:10042000AE8A7F008E828F83C002C003C004C005E5
:1004300012096AAE82AF83A8F0F9D005D004D003C8
:10044000D002C006C007C000C0018A828B838CF036
:10045000ED1208D0AA82AB83ACF0FDE58124FCF557
:1004600081C002C003C004C00590F4FC75F0327472
:100470003412082285822B85832C85F02DF52EE5FC
:100480008124FCF5811202ADAE82AF83C374B89EA5
:10049000740B9F40F01202ADAE82AF83C3EE94B8EE
:1004A000EF940B40F0D28CE4C0E0C0E0C0E07440B8
:1004B000C0E0852B82852C83852DF0E52E120977EF
:1004C000AE82AF83A8F0F9E58124FCF581C006C0B7
:1004D00007C000C0011202ADAA82AB83D001D000D8
:1004E000D007D006C374B89A740B9B5069108D0264
:1004F000800205227401B53306E4B5340280CE8E45
:10050000828F8388F0E9C006C007C000C0011209CD
:100510005F1201C3758212120252AA82AB83ACF041
:10052000FDC002C003C004C00590048175F035749D
:100530003F12082285823585833685F037F538E508
:100540008124FCF581D001D000D007D0067533019D
:10055000E4F5340204CDC28CE4F533F534C28D7574
:10056000220075BB11C2EDD2EC30EDFD758A00752D
:100570008C001202ADAA82AB83C374FA9AE49B404A
:10058000F11202ADAA82AB83C3EA94FAEB94004065
:10059000F0D28C1202ADAA82AB83C374FA9AE49BA8
:1005A0005009108D0280EC052280E8C28C852282E1
:1005B0001208C5AA82AB83ACF0FDC002C003C00420
:1005C000C00590000075F0807447120822AA82AB23
:1005D00083ACF0FDE58124FCF581858C82C002C0EE
:1005E00003C004C0051208C5AE82AF83A8F0F9C0ED
:1005F00006C007C000C00190000075F0807443126F
:100600000822AE82AF83A8F0F9E58124FCF581D001
:1006100005D004D003D002C006C007C000C0018AC4
:10062000828B838CF0ED1208D0AA82AB83ACF0FDF4
:10063000E58124FCF581AE8A7F008E828F83C00223
:10064000C003C004C00512096AAE82AF83A8F0F9E6
:10065000D005D004D003D002C006C007C000C0013E
:100660008A828B838CF0ED1208D0AA82AB83ACF027
:10067000FDE58124FCF581C002C003C004C00590E3
:10068000F4FC75F0327434120822AA82AB83ACF009
:10069000FDE58124FCF581C2EDD2EC30EDFD758ADB
:1006A00000758C00C002C003C004C0051202ADAECC
:1006B00082AF83D005D004D003D002C374B89E7437
:1006C0000B9F40E0C002C003C004C0051202ADAEE3
:1006D00082AF83D005D004D003D002C3EE94B8EF2C
:1006E000940B40E0D28CE4C0E0C0E0C0E07440C0B5
:1006F000E08A828B838CF0ED120977AA82AB83ACFF
:10070000F0FDE58124FCF581C002C003C004C005F2
:100710001202ADAE82AF83D005D004D003D002C3A5
:1007200074B89E740B9F5069108D0280020522746C
:1007300001B53306E4B5340280CE8A828B838CF017
:10074000EDC002C003C004C00512095F1201C375E9
:100750008211120252AE82AF83A8F0F9C006C00720
:10076000C000C00190048175F035743F12082285E5
:10077000823985833A85F03BF53CE58124FCF5819F
:10078000D005D004D003D002753301E4F53402075C
:1007900008C28CE4F533F534C02BC02CC02DC02E1C
:1007A000900000E4F5F07440120822AA82AB83ACFA
:1007B000F0FDE58124FCF581C002C003C004C00542
:1007C00090000075F080743F120977AA82AB83AC69
:1007D000F0FDE58124FCF581C02FC030C031C0326E
:1007E000C039C03AC03BC03CC035C036C037C03845
:1007F000C002C003C004C00574FCC0E07400C0E0C7
:100800007480C0E012093EE58124EDF5819001F489
:100810001201C3020347E4AC83AB82FAF9748E027F
:100820000A9F120B2BBC0003020ACAEF60FA30D5F4
:1008300002B2D1E583B4FF03020AE0E582B4FF030C
:10084000020AE0258340072482400B020ACA24835F
:10085000145003020AE0F582EA8DF0A4A8F0EA8EB3
:10086000F0A428F8E435F0F9EB8DF0A428E935F090
:10087000F9E433CA8FF0A429F9EA35F0FAEBF88EDF
:10088000F0A429F9EA35F0FAE433FBEC8DF0A42961
:10089000F9EA35F0FAE43BFBE88FF0A42AFAEB35ED
:1008A000F0FBE433CCFD8EF0A42AFAEB35F0FBE448
:1008B0003CFCED8FF0A42BFBEC35F0FC20E70312A1
:1008C0000AF8020AA9E4AC82FBFAF97486020A9FCC
:1008D000120B2B7900E583B58202800D5003120BB9
:1008E00059E583C39582120B73E5D0C465D020E12E
:1008F00017EA2DFAEB3EFBEC3FFC50097401120B9A
:1009000073EC4480FC020AA9C3EA9DFAEB9EFBEC5F
:100910009FFC500FC3E499F9E49AFAE49BFBE49C32
:10092000FCB2D1120AF8020AA90215428582188582
:10093000831985F01A85091B900929020F95C008B3
:10094000858108E50824FBF51BE50824FBF88618DB
:1009500008861908861A900929120F95D008227F57
:100960008E121559F58385F08222AC83AB827A0012
:100970007900748E021587120B2B30D502B2D1BFCD
:100980000009BC0003020AED020AE0BC0003020AEF
:10099000CAE583B4FF0BE582B4FF03020AED020A45
:1009A000CAE582B4FF03020AE0C395835007247F9F
:1009B000400B020ACA2480145003020AE0C0E0E49B
:1009C000CCCBCAF98D1C8E1D8F1EEF54F0C4F51FC1
:1009D000758306851FF0EB84F582E9C4F9EAC4FA51
:1009E000EBC4FBEC540FC47803D6FC18EBD6FB1811
:1009F000EAD6FA8582F0EDA4A8F0FD8582F0EEA497
:100A000028FEE435F0F88582F0EFA428FFE435F005
:100A1000F8E99DF9EA9EFAEB9FFBEC98FCAD1CAE61
:100A20001DAF1E30E7101582E92DF9EA3EFAEB3FC3
:100A3000FBE43CFC80EDC082D58398C3E933F9EA3E
:100A400033FAEB33FBEC33FCC3E99DEA9EEB9FECFE
:100A50009400B3E413F9D002D0E0C44AFAD003D032
:100A6000E0C44BFBD004D0E0F5F0540FC44CFCD0F4
:100A700082158230F40FD3EC13FCEB13FBEA13FA6C
:100A8000E913F90582E930E70A74012AFAE43BFB2D
:100A9000E43CFC020AC1FCABF0AA83A982749EC2AA
:100AA000D1F582120AF8020AA9B98003EA13B34009
:100AB00010EA2401FAE43BFBE43CFC50047C800592
:100AC00082BC000EBB000BBA0008E4F5F0F583F51C
:100AD0008222A2D1E582138CF092F78B838A822244
:100AE000E4F583F58275F080F4A2D11322E4F58356
:100AF000F58275F0C0747F227804EC7011E58224D1
:100B0000F8500AF582E4C9CACBFCD8EF22EC782071
:100B1000058220E713D5820122C3E933F9EA33FACB
:100B2000EB33FBEC33FCD8EA158222AA82AB83A21A
:100B3000F73392D16002D2F7F582ACF0E58124F967
:100B4000F8E6FD08E6FE0886F008E6A2F73392D53F
:100B50006002D2F7F583AFF022E582C583F582A269
:100B6000D133A2D592D11392D5ECCFFCEBCEFBEAD8
:100B7000CDFA226040F82582500274FFF582E82405
:100B8000F8501ECCCBCAF9E4CC24F85014CBCAF9E7
:100B9000E4CB24F8500BCAF9E4CA24F850037900D6
:100BA0002224086010F8C3EC13FCEB13FBEA13FAE1
:100BB000E913F9D8F122AA8274C7C0E0740BC0E02F
:100BC000C00AC00B8A82220511E4B5110205122267
:100BD000AA8274302AFA24C6500A74072AFA30000E
:100BE000034302208A82020BB6E582FAC4540FF551
:100BF00082C002120BD0D002740F5AF582020BD0C1
:100C0000AA0CAB0DAC0EAD0FAE10751720EE2EFE7C
:100C1000ED235401FF4206EA2AFAEB33FBEC33FCE6
:100C2000ED33FDC3EE95134008EEC39513FE43026A
:100C300001D517D98A0C8B0D8C0E8D0F8E10227852
:100C400049E624D075F00AA4FA784AE624D02AFAB4
:100C500078488603BB2D04C3E49AFA751301C3E4F4
:100C600064808AF063F08095F050297517038A0339
:100C700074F62517401C0513E51714243DF8E517F5
:100C8000243DF98704A604772E1BEBFA60040517B0
:100C900080DE8B02EA30E70D783E8603783FA603BC
:100CA000783E762E0AE515600AE51504FB2513F556
:100CB000138005300B020513783D8603E4BB2D013C
:100CC00004FB7006200603300702051330040302FC
:100CD0000D86300557EB600C75822DC002120BB6E5
:100CE000D002801C30060C75822BC002120BB6D0CD
:100CF00002800D30070A758220C002120BB6D002A6
:100D0000783E8604BC2E0C758230C002120BB6D021
:100D1000021514AC141514C3E5139C4003020DCA4C
:100D2000758230C002120BB6D00280E7AC141514E5
:100D3000C3E5139C500C758220C002120BB6D00282
:100D400080EA783D8604BC2D0C75822DC002120B02
:100D5000B6D002801C30060C75822BC002120BB676
:100D6000D002800D30070A758220C002120BB6D067
:100D700002783E8604BC2E52758230C002120BB639
:100D8000D00215148044EB600E75822DC002120B48
:100D9000B6D0021514802030060E75822BC00212C8
:100DA0000BB6D0021514800F30070C758220C002DC
:100DB000120BB6D0021514783E8603BB2E0C75823A
:100DC00030C002120BB6D0021514751701C20DE522
:100DD00017243DF88603BB4503020E87BB2E348AD9
:100DE00003C3E464808BF063F08095F0500F75824C
:100DF00030C003120BB6D0031B8B0280E48B02D2EF
:100E00000DE5157038200B03020E8775822E120B2C
:100E1000B68074300D278A03EB30E71FC3E464808B
:100E20008515F063F08095F0500C758230C0031288
:100E30000BB6D00315150B8B0280DD8B02300D0E27
:100E4000C3E464808515F063F08095F05021E517C8
:100E5000243DF886038B82C002120BB6D002300DFF
:100E60000EE517243DF88603BB2E028002151515EA
:100E700014C3E464808515F063F08095F04003208E
:100E80000D050517020DCFC3E464808515F063F0EE
:100E90008095F0500A758230120BB6151580E83037
:100EA000040FAA141514EA6008758220120BB6808C
:100EB000F122E5157003300B0D74072515FAE514C2
:100EC000C39AF5148006E51424FAF5147517007812
:100ED0003D8602BA2B0F20060C783D7620200705B0
:100EE0007517010514200419AA14C3E464808AF05C
:100EF00063F08095F0500A758220120BB6151480AD
:100F0000E7C20DE517243DF88602BA00028069BAEF
:100F1000451F3000027665C3E464808515F063F0F8
:100F20008095F0500A758230120BB6151580E8D204
:100F30000DC3E5179402E433FA7014EA700EC3E4AB
:100F400064808515F063F08095F04003300D16E560
:100F500017243DF886028A82120BB6E51724FD504D
:100F6000121515800E7402B51709300B0675822E06
:100F7000120BB60517020F03300419AA14C3E46458
:100F8000808AF063F08095F0500A758220120BB6CB
:100F9000151480E72285820A85830BE4F511F5128A
:100FA000AA18AB19AC1A8A828B838CF01215ABFD90
:100FB00074012AF518E43BF5198C1AEDFA70030256
:100FC000153BBA25028003021533C204C205C206CE
:100FD000C207C208C209C20AC20BC201C202C203CE
:100FE0007513007514007515FFAB18AC19AD1A8B8D
:100FF000828C838DF01215ABFAA3AB82AC838B1875
:101000008C198D1ABA25078A82120BB680928A062D
:10101000BE3000402E8A06EE24C6402774FFB51568
:1010200013E51475F00AA4FEEA24D02EF51470BF5F
:10103000D20580BBE51575F00AA4FEEA24D02EF592
:101040001580ACBA2E0A74FFB515A4751500809FE3
:101050008A06BE6100400E8A06EE248540075302D0
:10106000DFD2008002C200BA20028075BA230302D8
:1010700010F0BA2A030210F5BA2B02805FBA2D02D3
:101080008055BA4202805FBA430302113ABA440360
:10109000021275BA450302128FBA460302128BBAC6
:1010A0004703021293BA4903021275BA4C02803BFD
:1010B000BA4E03021297BA4F0302127CBA500302CF
:1010C000120EBA530302115EBA5503021281BA58C6
:1010D000030212860212C1D204020FEFD206020FDF
:1010E000EFD207020FEFD209020FEFD20A020FEF81
:1010F000D20B020FEF74FFB5152030090BE51B145E
:10110000F8881B8614020FEFE51B24FEF8881B8667
:1011100006088607188E14020FEF30090BE51B1422
:10112000F8881B8615020FEFE51B24FEF8881B8646
:1011300006088607188E15020FEF30090AE51B1402
:10114000F8881B8602800FE51B24FEF8881B8603A7
:10115000088604188B028A82120BB60212C6E51B9F
:1011600024FDF8881B860308860408860518188B5A
:101170000C8C0D8D0E8B828C838DF01216FFAB8242
:10118000AC838B1674FFB5150385161520041DC39B
:10119000E51695145016E514C39516F514AB141501
:1011A00014EB6008758220120BB680F1850C8285E5
:1011B0000D83850EF01215ABFBFA6029AB151515E2
:1011C000C3E464808BF063F08095F050188A82123B
:1011D0000BB6AB0CAC0DAD0E0BBB00010C8B0C8C2D
:1011E0000D8D0E80C72004030212C6C3E5169514A8
:1011F00040030212C6E514C39516F514AB1415147A
:10120000EB70030212C6758220120BB680EEE51B4E
:1012100024FDF8881B860308860408860518188BA9
:101220000C8C0D8D0EE50EFB30E7047A438013EB3A
:10123000546060047A50800AEB30E6047A498002F8
:101240007A588A82C002120BB675823A120BB675B2
:101250008230120BB6758278120BB6D002BA4902F0
:10126000800BBA50028006850D82120BE9850C8234
:10127000120BE98051D20875130A804A7513088051
:101280004575130A8040751310803BD2018037D218
:10129000028033D203802FE51B24FDF8881B8603D0
:1012A00008860408860518188B0C8C0D8D0E8B8211
:1012B0008C838DF0E5111216E6A3E5121216E68076
:1012C000058A82120BB6200106200203300370E566
:1012D0001B24FCF8881B86030886040886050886FC
:1012E000061818188B0C8C0D8D0E8E0FE50CE50D65
:1012F000E50EE50F8B828C838DF0EE1215C774FF1F
:10130000B51503751506300327747F550FFB8B1039
:10131000E510EB2BFB8B10E50E30E7067401451052
:10132000F510E51024684006749925104002D20299
:10133000300206120EB2020FA0120C3F020FA0E5FF
:10134000137003020FA07B4230092BE51B14F888B1
:101350001BE6FC3395E0FDFEFF8C0C8D0D8E0E8F91
:101360000F20085EAC0C7D007E007F008C0C8D0D84
:101370008E0E8F0F804C300A1FE51B24FCF8881B53
:1013800086040886050886060886071818188C0C37
:101390008D0D8E0E8F0F802AE51B24FEF8881B868C
:1013A0000408860518ED3395E0FEFF8C0C8D0D8E3C
:1013B0000E8F0F20080CAC0CAD0D7E007F008E0E42
:1013C0008F0F300B43E50C450D450E450F6039740A
:1013D00008B5130C758230C003120BB6D0038028F9
:1013E0007410B51323758230C003120BB6D00330CE
:1013F000000C758278C003120BB6D003800A758288
:1014000058C003120BB6D003300825AC0CAD0DAE9E
:101410000EE50FFF30E717C3E49CFCE49DFDE49E5E
:10142000FEE49FFF8C0C8D0D8E0E8F0F8002C20884
:10143000751600D20C8B00751000C000120C00D085
:1014400000200C0DE510C4FCE6FD4CF61888038066
:1014500002A6100516B20CE50C450D450E450F70A1
:10146000D68803E514700375140120051A200417AB
:10147000E51604FCC39514500E758220C003120BB0
:10148000B6D003151480E930080E75822DC0031202
:101490000BB6D00315148024E516602030060E75B7
:1014A000822BC003120BB6D0031514800F30070C2B
:1014B000758220C003120BB6D003151420041EAC95
:1014C000141514C3E5169C50273005047C308002A7
:1014D0007C208C82C003120BB6D00380E2C3E516D9
:1014E00095145009E514C39516F51480037514007E
:1014F0008B00AB161516EB6022B20C200C0A08E626
:10150000C4540FFB8B1080078603740F5BF51085A6
:101510001082C000120BD0D00080D7200403020F2D
:10152000A0AB141514EB7003020FA0758220120BF0
:10153000B680EE8A82120BB6020FA0851182851248
:101540008322AA82BA0A0810990280FB75990D10AD
:10155000990280FB8A99227F9E12172730D10302BD
:101560000ACAC3EF9582500974FFF5F0F583F5823E
:10157000227900120B7389828A838BF0EC22FCABF8
:10158000F0AA83A982749EF582C2D1EC30E716D20C
:10159000D1E9F42401F9EAF43400FAEBF43400FB65
:1015A000ECF43400FC120AF8020AA920F71430F611
:1015B000148883A88220F507E6A88375830022E2B9
:1015C00080F7E49322E022C0E0F84582458345F0AD
:1015D0007009F5F0FBFCFDFE021695E823A2F792D8
:1015E000E0F8A982AA83D2F7ABF07C007E07C3742F
:1015F0009798404074FF2EFE740A89F0A4F985F094
:1016000082740A8AF0A4FA85F083740A8BF0A4FB32
:10161000740529F9EA3582FAEB3583FB740035F05D
:10162000FCC3EC13FCEB13FBEA13FAE913F908EC27
:1016300070EF80BAE8C3947FF88B838EF0E4FBFCF4
:10164000FDFEFF08C3E933F9EA33FAE58333F58396
:10165000EB3BD4FBEC3CD4FCED3DD4FDEE3ED4FEA4
:10166000EF3FD4FF602D05F074052BD4FBE43CD490
:10167000FCE43DD4FDE43ED4FEE43FD4FF75820497
:10168000C3EF13FFEE13FEED13FDEC13FCEB13FBA6
:10169000D582EDD8AF783DD0E020E704762B8002EC
:1016A000762D087906E7C4540F4430F608B90603CE
:1016B000762E08E7540F4430F60819B902E776454C
:1016C00008E5F020E704762B8004762DF4040875F5
:1016D000F00A844430F608E5F04430F608E4F69069
:1016E000003D75F0402220F71030F6118883A88263
:1016F00020F507F6A88375830022F280F7F022AA6E
:1017000082AB83ACF07D007E008A828B838CF012EA
:1017100015ABFFA3AA82AB83EF60070DBD00EA0EF5
:1017200080E78D828E8322AA82AB83A2F73392D187
:101730006002D2F7F582ACF0220000000000000049
:00000001FF
