:0300000002046196
:10000300C0E0C0D0C000C001C002E4F53AF53BF542
:100013003CF53DF53E7A20E535A2E779047832E6F2
:1000230033F608D9FA7905783AE636D4F608D9F9D9
:10003300DAE5D002D001D000D0D0D0E022C0E0C0B9
:10004300D0C000C001C002E4F53AF53BF53CF53DF4
:10005300F53E7A20E535A2E779047832E633F608EF
:10006300D9FA7905783AC0D0E6243320E70224D0C0
:1000730020E30224FDD0D033F608D9EADAD6D00241
:10008300D001D000D0D0D0E022C0E0C0D0C000C0AA
:1000930001C0027A207905C3783EE613C0D030E769
:1000A3000224D030E30224FDF618D0D0D9EC790431
:1000B3007835E613F618D9FADADBD002D001D0008E
:1000C300D0D0D0E022C0E0C0D0E5322536F532E50D
:1000D300333537F533E5343538F534E5353539F52A
:1000E30035D0D0D0E022C0E0C0D0C3E5329536F59C
:1000F30032E5339537F533E5349538F534E5359501
:1001030039F535D0D0D0E022C0E0C0D0C3E5329578
:1001130036E5339537E5349538E53595399200D092
:10012300D0D0E022C0E0C0D0C3E5369532E53795A4
:1001330033E5389534E53995359200D0D0D0E022B7
:10014300C0E0C0D0C200C3E53695327014E53795E0
:1001530033700EE53895347008E53995357002D261
:1001630000D0D0D0E0221201432000030201272255
:1001730012014320000302010B22C0E0C0F0C0D0F3
:10018300C000C001C002C003E5328536F0A4F8A95F
:10019300F0E5338536F0A429F9E435F0FAE5328544
:1001A30037F0A429F9E5F03AFAE433FBE534853670
:1001B300F0A42AFAE5F03BFBE5338537F0A42AFAED
:1001C300E5F03BFBE5328538F0A42AFAE5F03BFB8A
:1001D300E5358536F0A42BFBE5348537F0A42BFBFE
:1001E300E5338538F0A42BFBE5328539F0A42BFBEE
:1001F3008B358A3489338832D003D002D001D000C2
:10020300D0D0D0F0D0E022C0E0C0D0C000C001C048
:1002130002C003C0047C20E4F8F9FAFBC3E53233DF
:10022300F532E53333F533E53433F534E53533F57A
:1002330035E833F8E933F9EA33FAEB33FBC3E895EE
:1002430036E99537EA9538EB95394013E89536F852
:10025300E99537F9EA9538FAEB9539FB433201DC36
:10026300BBD004D003D002D001D000D0D0D0E02244
:10027300C00078B10000D8FCD00022C000C00179D2
:100283002D78A6D8FED9FADAF6D001D00022D2B35F
:10029300120273C2B322A2E792B7A2E692B6A2E514
:1002A30092B5A2E492B4120291120273A2E392B73E
:1002B300A2E292B6A2E192B5A2E092B41202912216
:1002C300D2B2020299C2B2020299C2B374331202C9
:1002D300C874331202C874321202C874281202C8D6
:1002E300740C1202C874011202C8C0027A0212020C
:1002F3007ED00222E49360061202C3A380F6224456
:100303004044800202C8C0E0E8C4540F44301202E3
:0C031300C3E8540F44301202C3D0E022B3
:10031F0054656D703A0079DE78A6D8FED9FA438716
:10032F0080759852759B00759AF4759B1E22D2A208
:10033F00C2A3223099FDC299F59922E49360061267
:10034F000342A380F6227E597DFA7CA6DCFEDDFAFD
:10035F00DEF622C0E079007A08E833F892A1D2A342
:10036F00A2A2E933F9C2A3DAF0D0E022C0E0740709
:10037F0014120302D0E0C000A83E120309D000C03F
:10038F0000A83D120309D000C000A83C120309D0F9
:10039F0000C000A83B120309D000C000A83A120306
:1003AF0009D000C0E0740714120302D0E0E53E54F8
:1003BF00F0C46003020460C0E074201202C3D0E0F6
:1003CF00E53E540F6003020460C0E074201202C3C4
:1003DF00D0E0E53D54F0C46003020460C0E0742037
:1003EF001202C3D0E0E53D540F6003020460C0E089
:1003FF0074201202C3D0E0E53C54F0C46003020441
:10040F0060C0E074201202C3D0E0E53C540F6003DB
:10041F00020460C0E074201202C3D0E0E53B54F048
:10042F00C46003020460C0E074201202C3D0E0E590
:10043F003B540F6003020460C0E074201202C3D06B
:10044F00E0E53A54F0C47009C0E074201202C3D042
:10045F00E02275817FD2A012033D12032575E600BD
:10046F0075E7001202CDC0E0740114120304D0E04E
:10047F00C083C082C0E090031F1202F7D0E0D08289
:10048F00D083C2A078011203627880120362E9540C
:10049F0003F53178551203628930D2A012035585C6
:1004AF00303285313375340075350075369A7537AE
:1004BF000175380075390012017D7536FF753703E8
:1004CF0075380075390012020A75361175370175C6
:1004DF0038007539001200E912000312037BE53B67
:1004EF0054F0C44430120342E53B540F443012031E
:1004FF0042E53A54F0C44430120342E53A540F44F3
:10050F0030120342740D120342740A1203420204A2
:01051F00914A
:00000001FF
