:030000000204698E
:10000300C0E0C0D0C000C001C002E4F538F539F546
:100013003AF53BF53C7A20E533A2E779047830E6FC
:1000230033F608D9FA79057838E636D4F608D9F9DB
:10003300DAE5D002D001D000D0D0D0E022C0E0C0B9
:10004300D0C000C001C002E4F538F539F53AF53BFC
:10005300F53C7A20E533A2E779047830E633F608F5
:10006300D9FA79057838C0D0E6243320E70224D0C2
:1000730020E30224FDD0D033F608D9EADAD6D00241
:10008300D001D000D0D0D0E022C0E0C0D0C000C0AA
:1000930001C0027A207905C3783CE613C0D030E76B
:1000A3000224D030E30224FDF618D0D0D9EC790431
:1000B3007833E613F618D9FADADBD002D001D00090
:1000C300D0D0D0E022C0E0C0D0E5302534F530E513
:1000D300313535F531E5323536F532E5333537F53A
:1000E30033D0D0D0E022C0E0C0D0C3E5309534F5A2
:1000F30030E5319535F531E5329536F532E5339511
:1001030037F533D0D0D0E022C0E0C0D0C3E530957E
:1001130034E5319535E5329536E53395379200D0A0
:10012300D0D0E022C0E0C0D0C3E5349530E53595AA
:1001330031E5369532E53795339200D0D0D0E022C1
:10014300C0E0C0D0C200C3E53495307014E53595E6
:1001530031700EE53695327008E53795337002D26B
:1001630000D0D0D0E0221201432000030201272255
:1001730012014320000302010B22C0E0C0F0C0D0F3
:10018300C000C001C002C003E5308534F0A4F8A963
:10019300F0E5318534F0A429F9E435F0FAE530854A
:1001A30035F0A429F9E5F03AFAE433FBE532853476
:1001B300F0A42AFAE5F03BFBE5318535F0A42AFAF1
:1001C300E5F03BFBE5308536F0A42AFAE5F03BFB8E
:1001D300E5338534F0A42BFBE5328535F0A42BFB06
:1001E300E5318536F0A42BFBE5308537F0A42BFBF6
:1001F3008B338A3289318830D003D002D001D000CA
:10020300D0D0D0F0D0E022C0E0C0D0C000C001C048
:1002130002C003C0047C20E4F8F9FAFBC3E53033E1
:10022300F530E53133F531E53233F532E53333F586
:1002330033E833F8E933F9EA33FAEB33FBC3E895F0
:1002430034E99535EA9536EB95374013E89534F85C
:10025300E99535F9EA9536FAEB9537FB433001DC3E
:10026300BBD004D003D002D001D000D0D0D0E02244
:10027300C00078B10000D8FCD00022C000C00179D2
:100283002D78A6D8FED9FADAF6D001D00022D2B35F
:10029300120273C2B322A2E792B7A2E692B6A2E514
:1002A30092B5A2E492B4120291120273A2E392B73E
:1002B300A2E292B6A2E192B5A2E092B41202912216
:1002C300D2B2020299C2B2020299C2B374331202C9
:1002D300C874331202C874321202C874281202C8D6
:1002E300740C1202C874011202C8C0027A0212020C
:1002F3007ED00222E49360061202C3A380F6224456
:100303004044800202C8C0E0E8C4540F44301202E3
:0C031300C3E8540F44301202C3D0E022B3
:10031F00C0E0740714120302D0E0C000A83C12031F
:10032F0009D000C000A83B120309D000C000A83AB2
:10033F00120309D000C000A839120309D000C00071
:10034F00A838120309D000C0E0740714120302D0BA
:10035F00E0E53C54F0C46003020404C0E0742012D2
:10036F0002C3D0E0E53C540F6003020404C0E07404
:10037F00201202C3D0E0E53B54F0C4600302040432
:10038F00C0E074201202C3D0E0E53B540F600302BB
:10039F000404C0E074201202C3D0E0E53A54F0C464
:1003AF006003020404C0E074201202C3D0E0E53AF7
:1003BF00540F6003020404C0E074201202C3D0E0A3
:1003CF00E53954F0C46003020404C0E07420120243
:1003DF00C3D0E0E539540F6003020404C0E0742079
:1003EF001202C3D0E0E53854F0C47009C0E07420A5
:1003FF001202C3D0E022C0E0740714120302D0E04F
:10040F00C0E074201202C3D0E0C000A83B12030961
:10041F00D000C000A83A120309D000C0E0742E1219
:10042F0002C3D0E0C000A839120309D000C000A851
:10043F0038120309D0002220C5FDC0027A32120201
:10044F007ED00220C5F130C5FD225465737420782B
:10045F007820616E737765723A0075817F75E6005B
:10046F0075E7001202CDC0E0740114120304D0E04E
:10047F00C083C082C0E09004591202F7D0E0D0824E
:10048F00D083C0E0740614120304D0E0C0007801DA
:10049F00120309D0007530D27531047532007533EF
:1004AF00007534D775351175360075370012017D1B
:1004BF0012000312031F120446C0E0740614120345
:1004CF0004D0E0C0007802120309D0007530D27555
:1004DF0031047532007533007534D77535117536A3
:1004EF000075370012017D12000312031F1204461C
:1004FF00C0E0740614120304D0E0C00078031203A6
:10050F0009D00075305E7531FE7532557533007543
:10051F0034D275350475360075370012020A120091
:10052F000312031F120446C0E0740614120304D012
:10053F00E0C0007804120309D0007530D275310481
:10054F007532007533007534D775351175360075F2
:10055F0037001200C812000312031F120446C0E036
:10056F00740614120304D0E0C0007805120309D0FA
:10057F00007530D77531117532007533007534D26F
:10058F007535047536007537001200E91200031235
:10059F00031F120446C0E0740614120304D0E0C017
:1005AF00007806120309D0007530E87531007532F6
:1005BF00007533007534E8753500753600753700F2
:1005CF0012017D7534AC75358A753600753700129A
:1005DF00017D75347175350075360075370012025F
:0D05EF000A120003120405120446020491D2
:00000001FF
