:030000000201E416
:0100030032CA
:03000B00020115DA
:0100130032BA
:01001B0032B2
:0100230032AA
:03002B000201319E
:10002E00C00078B10000D8FCD00022C000C0017919
:10003E002D78A6D8FED9FADAF6D001D00022D2B3A6
:10004E0012002EC2B322A2E792B7A2E692B6A2E5A2
:10005E0092B5A2E492B412004C12002EA2E392B713
:10006E00A2E292B6A2E192B5A2E092B412004C22A4
:10007E00D2B2020054C2B2020054C2B374331200A0
:10008E008374331200837432120083742812008337
:10009E00740C1200837401120083C0027A021200E3
:1000AE0039D00222E493600612007EA380F6224429
:1000BE00404480020083C0E0E8C4540F4430120074
:1000CE007EE8540F443012007ED0E0224243445F5B
:1000DE00636F756E7465723A207878200054696D7E
:1000EE006500416C61726D003A0041005000E58977
:1000FE0054F04401F589758CEA758AE875F4EA7551
:10010E00F2E8D2A9D28C22B2913275C80075CDA96F
:10011E0075CC9A75CBA975CA9AE4F530F531D2AD86
:10012E00D2CA22C2CFB290C0E0C0D00530E5307046
:10013E00020531E530B40535E531B40030D200B2F8
:10014E008CE4F530F531E5322401D4B46024E4F5C5
:10015E0032E5332401D4B46020E4F533E5342401D0
:10016E00D4B41319E42401F534E5322499D0D0D057
:10017E00E032F53280BD020141F53380B6F53480B0
:10018E00B2C0E0740F141200BFD0E0C0E074411290
:10019E00007ED0E07D41809BC0E0740F141200BF42
:1001AE00D0E0C0E0745012007ED0E07D5080C7BD1C
:1001BE0050E6BD41CC8000E5342401D4B41313E4E1
:1001CE002401F534E532020141B535ADB536AE0246
:1001DE000115F53480E175817F1200FC120118754E
:1001EE00E60075E700D2AF120088C0E07401141269
:1001FE0000BFD0E0C083C082C0E09000EB1200B21E
:10020E00D0E0D082D083C0E07401141200BDD0E0E3
:10021E00C083C082C0E09000F01200B2D0E0D08265
:10022E00D083753500753600C0E0740A141200BD17
:10023E00D0E0C000A8351200C4D000C0E07409148C
:10024E001200BDD0E0C0E0743A12007ED0E0C0E0F3
:10025E007407141200BDD0E0C000A8361200C4D03E
:10026E0000C0E0740F141200BFD0E0C0E074411261
:10027E00007ED0E07D41D20075341220832FC00263
:10028E007A32120039D0022083233083FDE53524E3
:10029E0001D4C0E0740A141200BDD0E0C000A8352D
:1002AE001200C4D000F535B46003753500208632D7
:1002BE00C0027A32120039D0022086263086FDE541
:1002CE00362401D4C0E07407141200BDD0E0C00083
:1002DE00A8361200C4D000F536B4130675360030B9
:1002EE000099C200C0E07406141200BFD0E0C00036
:1002FE00A8341200C4D000C0E07408141200BFD09D
:10030E00E0C0E0743A12007ED0E0C0E0740914122E
:10031E0000BFD0E0C000A8331200C4D000C0E0740B
:10032E000B141200BFD0E0C0E0743A12007ED0E091
:10033E00C0E0740C141200BFD0E0C000A83212004E
:06034E00C4D00002028988
:00000001FF
