:100000000200107A5979FA78A6D8FED9FADAF622DF
:1000100075817F75C60075C70075D10890000074A2
:10002000FFF090000174FFF090000274FFF0900068
:100030000374FFF090000474FFF090000574FFF06B
:100040009000067400F090000774FFF090000874B0
:1000500000F090000974FFF090000A74FFF0900027
:100060000B7400F090000C74FFF090000D74FFF022
:1000700090000E74FFF090000F74FFF09000107469
:10008000FFF090001174FFF090001274FFF075D132
:100090000043D24075D15475D1A4E5D120E0FB7561
:0C00A000D10053D2BFB2B712000380F9A8
:00000001FF
