:100000000200ADC00078B10000D8FCD00022C000D2
:10001000C001790F78A6D8FED9FADAF6D001D0005F
:1000200022D2B3120003C2B322D2B2020033C2B250
:10003000020033A2E792B7A2E692B6A2E592B5A279
:10004000E492B4120021A2E392B7A2E292B6A2E136
:1000500092B5A2E092B412002122C2B3743312000E
:100060002E743312002E743212002E742812002EB9
:10007000740C12002E740112002E7A0212000E74FB
:100080004812002E7400120029740A12002974000C
:1000900012002974041200297411120029740E121E
:1000A0000029740012002974001200292275817F32
:1000B00012005A748012002E12000E744A12002987
:1000C00012000E748112002E746512002912000EA7
:1000D000748212002E747212002912000E748312A0
:1000E000002E747212002912000E748412002E74F5
:1000F0007912002912000E748612002E7446120026
:100100002912000E748712002E7475120029120035
:100110000E748912002E740112002912000E74C090
:1001200012002E743412002912000E74C112002E17
:10013000743612002912000E74C212002E74391285
:10014000002912000E74C312002E743412002912FA
:10015000000E74C412002E743012002912000E74A6
:10016000C512002E743412002912000E74C612003B
:100170002E743212002912000E74C712002E74352C
:1001800012002912000E12000E12000E12000E12A2
:10019000000E12000E12000E12000E12000E1200BF
:1001A0000E748012002E7420120029748112002E09
:1001B0007420120029748212002E742012002974F7
:1001C0008312002E7420120029748412002E7420D1
:1001D000120029748612002E7420120029748712CE
:1001E000002E7420120029748912002E742012002F
:1001F0002974C012002E742012002974C112002E1E
:10020000742012002974C212002E74201200297466
:10021000C312002E742012002974C412002E742000
:1002200012002974C512002E742012002974C612FF
:10023000002E742012002974C712002E74201200A0
:100240002912000E12000E12000E12000E12000EE5
:1002500012000E748012002E744A1200297481124A
:10026000002E7465120029748212002E747212001E
:1002700029748312002E7472120029748412002EC5
:100280007479120029748612002E744612002974A3
:100290008712002E7475120029748912002E7401C1
:1002A00012002974C012002E743412002974C11275
:1002B000002E743612002974C212002E74391200F6
:1002C0002974C312002E743412002974C412002E33
:1002D000743012002974C512002E7434120029746F
:1002E000C612002E743212002974C712002E743503
:1002F00012002912000E12000E12000E12000E1231
:10030000000E12000E12000E12000E12000E12004D
:100310000E748012002E7420120029748112002E97
:100320007420120029748212002E74201200297485
:100330008312002E7420120029748412002E74205F
:10034000120029748612002E74201200297487125C
:10035000002E7420120029748912002E74201200BD
:100360002974C012002E742012002974C112002EAC
:10037000742012002974C212002E742012002974F5
:10038000C312002E742012002974C412002E74208F
:1003900012002974C512002E742012002974C6128E
:1003A000002E742012002974C712002E742012002F
:1003B0002912000E12000E12000E12000E12000E74
:1003C00012000E748012002E744A120029748112D9
:1003D000002E7465120029748212002E74721200AD
:1003E00029748312002E7472120029748412002E54
:1003F0007479120029748612002E74461200297432
:100400008712002E7475120029748912002E74014F
:1004100012002974C012002E743412002974C11203
:10042000002E743612002974C212002E7439120084
:100430002974C312002E743412002974C412002EC1
:10044000743012002974C512002E743412002974FD
:10045000C612002E743212002974C712002E743591
:1004600012002912000E12000E12000E12000E12BF
:10047000000E12000E12000E12000E12000E1200DC
:100480000E748012002E7420120029748112002E26
:100490007420120029748212002E74201200297414
:1004A0008312002E7420120029748412002E7420EE
:1004B000120029748612002E7420120029748712EB
:1004C000002E7420120029748912002E742012004C
:1004D0002974C012002E742012002974C112002E3B
:1004E000742012002974C212002E74201200297484
:1004F000C312002E742012002974C412002E74201E
:1005000012002974C512002E742012002974C6121C
:10051000002E742012002974C712002E74201200BD
:100520002912000E12000E12000E12000E12000E02
:1005300012000E748012002E744A12002974811267
:10054000002E7465120029748212002E747212003B
:1005500029748312002E7472120029748412002EE2
:100560007479120029748612002E744612002974C0
:100570008712002E7475120029748912002E7401DE
:1005800012002974C012002E743412002974C11292
:10059000002E743612002974C212002E7439120013
:1005A0002974C312002E743412002974C412002E50
:1005B000743012002974C512002E7434120029748C
:1005C000C612002E743212002974C712002E743520
:1005D00012002912000E12000E12000E12000E124E
:1005E000000E12000E12000E12000E12000E12006B
:0905F0000E12000E1200AD80FB9A
:00000001FF
